{
    "_format": "hh-sol-artifact-1",
    "contractName": "Transactions",
    "sourceName": "contracts/Transactions.sol",
    "abi": [
        {
            "anonymous": false,
            "inputs": [
                {
                    "indexed": false,
                    "internalType": "address",
                    "name": "from",
                    "type": "address"
                },
                {
                    "indexed": false,
                    "internalType": "address",
                    "name": "receiver",
                    "type": "address"
                },
                {
                    "indexed": false,
                    "internalType": "uint256",
                    "name": "amount",
                    "type": "uint256"
                },
                {
                    "indexed": false,
                    "internalType": "string",
                    "name": "message",
                    "type": "string"
                },
                {
                    "indexed": false,
                    "internalType": "uint256",
                    "name": "timestamp",
                    "type": "uint256"
                },
                {
                    "indexed": false,
                    "internalType": "string",
                    "name": "keyword",
                    "type": "string"
                }
            ],
            "name": "Transfer",
            "type": "event"
        },
        {
            "inputs": [
                {
                    "internalType": "address payable",
                    "name": "receiver",
                    "type": "address"
                },
                {
                    "internalType": "uint256",
                    "name": "amount",
                    "type": "uint256"
                },
                {
                    "internalType": "string",
                    "name": "message",
                    "type": "string"
                },
                {
                    "internalType": "string",
                    "name": "keyword",
                    "type": "string"
                }
            ],
            "name": "addToBlockChain",
            "outputs": [],
            "stateMutability": "nonpayable",
            "type": "function"
        },
        {
            "inputs": [],
            "name": "getAllTransactions",
            "outputs": [
                {
                    "components": [
                        {
                            "internalType": "address",
                            "name": "sender",
                            "type": "address"
                        },
                        {
                            "internalType": "address",
                            "name": "receiver",
                            "type": "address"
                        },
                        {
                            "internalType": "uint256",
                            "name": "amount",
                            "type": "uint256"
                        },
                        {
                            "internalType": "string",
                            "name": "message",
                            "type": "string"
                        },
                        {
                            "internalType": "uint256",
                            "name": "timestamp",
                            "type": "uint256"
                        },
                        {
                            "internalType": "string",
                            "name": "keyword",
                            "type": "string"
                        }
                    ],
                    "internalType": "struct Transactions.TransferStruct[]",
                    "name": "",
                    "type": "tuple[]"
                }
            ],
            "stateMutability": "view",
            "type": "function"
        },
        {
            "inputs": [],
            "name": "getTransactionCount",
            "outputs": [
                {
                    "internalType": "uint256",
                    "name": "",
                    "type": "uint256"
                }
            ],
            "stateMutability": "view",
            "type": "function"
        },
        {
            "inputs": [],
            "name": "transactionCount",
            "outputs": [
                {
                    "internalType": "uint256",
                    "name": "",
                    "type": "uint256"
                }
            ],
            "stateMutability": "view",
            "type": "function"
        }
    ],
    "bytecode": "0x608060405234801561001057600080fd5b50610c2d806100206000396000f3fe608060405234801561001057600080fd5b506004361061004c5760003560e01c806327506f53146100515780632e7700f01461006f578063b2da09601461008d578063b77bf600146100a9575b600080fd5b6100596100c7565b60405161006691906108e6565b60405180910390f35b61007761030a565b6040516100849190610908565b60405180910390f35b6100a760048036038101906100a2919061060e565b610313565b005b6100b16104d3565b6040516100be9190610908565b60405180910390f35b60606001805480602002602001604051908101604052809291908181526020016000905b8282101561030157838290600052602060002090600602016040518060c00160405290816000820160009054906101000a900473ffffffffffffffffffffffffffffffffffffffff1673ffffffffffffffffffffffffffffffffffffffff1673ffffffffffffffffffffffffffffffffffffffff1681526020016001820160009054906101000a900473ffffffffffffffffffffffffffffffffffffffff1673ffffffffffffffffffffffffffffffffffffffff1673ffffffffffffffffffffffffffffffffffffffff168152602001600282015481526020016003820180546101d490610ab0565b80601f016020809104026020016040519081016040528092919081815260200182805461020090610ab0565b801561024d5780601f106102225761010080835404028352916020019161024d565b820191906000526020600020905b81548152906001019060200180831161023057829003601f168201915b505050505081526020016004820154815260200160058201805461027090610ab0565b80601f016020809104026020016040519081016040528092919081815260200182805461029c90610ab0565b80156102e95780601f106102be576101008083540402835291602001916102e9565b820191906000526020600020905b8154815290600101906020018083116102cc57829003601f168201915b505050505081525050815260200190600101906100eb565b50505050905090565b60008054905090565b60008081548092919061032590610ae2565b919050555060016040518060c001604052803373ffffffffffffffffffffffffffffffffffffffff1681526020018673ffffffffffffffffffffffffffffffffffffffff16815260200185815260200184815260200142815260200183815250908060018154018082558091505060019003906000526020600020906006020160009091909190915060008201518160000160006101000a81548173ffffffffffffffffffffffffffffffffffffffff021916908373ffffffffffffffffffffffffffffffffffffffff16021790555060208201518160010160006101000a81548173ffffffffffffffffffffffffffffffffffffffff021916908373ffffffffffffffffffffffffffffffffffffffff1602179055506040820151816002015560608201518160030190805190602001906104629291906104d9565b506080820151816004015560a08201518160050190805190602001906104899291906104d9565b5050507f416cfa4330a4565f45c2fd2dd4826a83a37443aba2ce6f79477c7355afac35fa3385858542866040516104c596959493929190610877565b60405180910390a150505050565b60005481565b8280546104e590610ab0565b90600052602060002090601f016020900481019282610507576000855561054e565b82601f1061052057805160ff191683800117855561054e565b8280016001018555821561054e579182015b8281111561054d578251825591602001919060010190610532565b5b50905061055b919061055f565b5090565b5b80821115610578576000816000905550600101610560565b5090565b600061058f61058a84610954565b610923565b9050828152602081018484840111156105a757600080fd5b6105b2848285610a6e565b509392505050565b6000813590506105c981610bc9565b92915050565b600082601f8301126105e057600080fd5b81356105f084826020860161057c565b91505092915050565b60008135905061060881610be0565b92915050565b6000806000806080858703121561062457600080fd5b6000610632878288016105ba565b9450506020610643878288016105f9565b935050604085013567ffffffffffffffff81111561066057600080fd5b61066c878288016105cf565b925050606085013567ffffffffffffffff81111561068957600080fd5b610695878288016105cf565b91505092959194509250565b60006106ad83836107c9565b905092915050565b6106be81610a38565b82525050565b6106cd816109ea565b82525050565b6106dc816109ea565b82525050565b60006106ed82610994565b6106f781856109b7565b93508360208202850161070985610984565b8060005b85811015610745578484038952815161072685826106a1565b9450610731836109aa565b925060208a0199505060018101905061070d565b50829750879550505050505092915050565b60006107628261099f565b61076c81856109c8565b935061077c818560208601610a7d565b61078581610bb8565b840191505092915050565b600061079b8261099f565b6107a581856109d9565b93506107b5818560208601610a7d565b6107be81610bb8565b840191505092915050565b600060c0830160008301516107e160008601826106c4565b5060208301516107f460208601826106c4565b5060408301516108076040860182610859565b506060830151848203606086015261081f8282610757565b91505060808301516108346080860182610859565b5060a083015184820360a086015261084c8282610757565b9150508091505092915050565b61086281610a2e565b82525050565b61087181610a2e565b82525050565b600060c08201905061088c60008301896106d3565b61089960208301886106b5565b6108a66040830187610868565b81810360608301526108b88186610790565b90506108c76080830185610868565b81810360a08301526108d98184610790565b9050979650505050505050565b6000602082019050818103600083015261090081846106e2565b905092915050565b600060208201905061091d6000830184610868565b92915050565b6000604051905081810181811067ffffffffffffffff8211171561094a57610949610b89565b5b8060405250919050565b600067ffffffffffffffff82111561096f5761096e610b89565b5b601f19601f8301169050602081019050919050565b6000819050602082019050919050565b600081519050919050565b600081519050919050565b6000602082019050919050565b600082825260208201905092915050565b600082825260208201905092915050565b600082825260208201905092915050565b60006109f582610a0e565b9050919050565b6000610a0782610a0e565b9050919050565b600073ffffffffffffffffffffffffffffffffffffffff82169050919050565b6000819050919050565b6000610a4382610a4a565b9050919050565b6000610a5582610a5c565b9050919050565b6000610a6782610a0e565b9050919050565b82818337600083830152505050565b60005b83811015610a9b578082015181840152602081019050610a80565b83811115610aaa576000848401525b50505050565b60006002820490506001821680610ac857607f821691505b60208210811415610adc57610adb610b5a565b5b50919050565b6000610aed82610a2e565b91507fffffffffffffffffffffffffffffffffffffffffffffffffffffffffffffffff821415610b2057610b1f610b2b565b5b600182019050919050565b7f4e487b7100000000000000000000000000000000000000000000000000000000600052601160045260246000fd5b7f4e487b7100000000000000000000000000000000000000000000000000000000600052602260045260246000fd5b7f4e487b7100000000000000000000000000000000000000000000000000000000600052604160045260246000fd5b6000601f19601f8301169050919050565b610bd2816109fc565b8114610bdd57600080fd5b50565b610be981610a2e565b8114610bf457600080fd5b5056fea26469706673582212203bae7561980cf3f7e0aa3c115f664b4aa80258bdd6602d96706e5b28bcc25d2a64736f6c63430008000033",
    "linkReferences": {},
    "deployedLinkReferences": {}
}